{
  "contractName": "FirstContract",
  "abi": [
    {
      "constant": true,
      "inputs": [],
      "name": "getInteger",
      "outputs": [
        {
          "internalType": "uint256",
          "name": "",
          "type": "uint256"
        }
      ],
      "payable": false,
      "stateMutability": "pure",
      "type": "function"
    },
    {
      "constant": true,
      "inputs": [
        {
          "internalType": "uint256[]",
          "name": "a",
          "type": "uint256[]"
        },
        {
          "internalType": "uint256[]",
          "name": "b",
          "type": "uint256[]"
        }
      ],
      "name": "tab",
      "outputs": [
        {
          "internalType": "uint256",
          "name": "",
          "type": "uint256"
        }
      ],
      "payable": false,
      "stateMutability": "view",
      "type": "function"
    }
  ],
  "bytecode": "0x608060405234801561001057600080fd5b506101ff806100206000396000f3fe608060405234801561001057600080fd5b50600436106100365760003560e01c80631d79c0501461003b5780638b84925b1461019b575b600080fd5b6101856004803603604081101561005157600080fd5b810190808035906020019064010000000081111561006e57600080fd5b82018360208201111561008057600080fd5b803590602001918460208302840111640100000000831117156100a257600080fd5b919080806020026020016040519081016040528093929190818152602001838360200280828437600081840152601f19601f8201169050808301925050505050505091929192908035906020019064010000000081111561010257600080fd5b82018360208201111561011457600080fd5b8035906020019184602083028401116401000000008311171561013657600080fd5b919080806020026020016040519081016040528093929190818152602001838360200280828437600081840152601f19601f8201169050808301925050505050505091929192905050506101b9565b6040518082815260200191505060405180910390f35b6101a36101c1565b6040518082815260200191505060405180910390f35b600092915050565b6000607b90509056fea265627a7a723158203b2bb49379a4d0c76238390bd38115db35644a5ef293d3bf8d087f2255acf74564736f6c63430005100032",
  "source": "pragma solidity ^0.5.12;\r\n\r\ncontract FirstContract {\r\n  function getInteger() public pure returns (uint) {\r\n    return 123;\r\n  }\r\n   function tab(uint[] memory a,uint [] memory b)public  view returns(uint ){\r\n       \r\n    }\r\n}",
  "sourcePath": "C:/Users/PC/project/contracts/exemple.sol",
  "compiler": {
    "name": "solc",
    "version": "0.5.16+commit.9c3226ce.Emscripten.clang"
  },
  "schemaVersion": "3.3.4",
  "updatedAt": "2021-10-23T17:26:08.554Z",
  "networkType": "ethereum",
  "devdoc": {
    "methods": {}
  },
  "userdoc": {
    "methods": {}
  }
}