{
  "contractName": "helloword",
  "abi": [
    {
      "constant": true,
      "inputs": [],
      "name": "hello",
      "outputs": [
        {
          "internalType": "string",
          "name": "",
          "type": "string"
        }
      ],
      "payable": false,
      "stateMutability": "pure",
      "type": "function"
    },
    {
      "constant": true,
      "inputs": [],
      "name": "get",
      "outputs": [
        {
          "internalType": "uint256",
          "name": "",
          "type": "uint256"
        },
        {
          "internalType": "uint256",
          "name": "",
          "type": "uint256"
        }
      ],
      "payable": false,
      "stateMutability": "pure",
      "type": "function"
    }
  ],
  "bytecode": "0x608060405234801561001057600080fd5b50610169806100206000396000f3fe608060405234801561001057600080fd5b50600436106100365760003560e01c806319ff1d211461003b5780636d4ce63c146100be575b600080fd5b6100436100e3565b6040518080602001828103825283818151815260200191508051906020019080838360005b83811015610083578082015181840152602081019050610068565b50505050905090810190601f1680156100b05780820380516001836020036101000a031916815260200191505b509250505060405180910390f35b6100c6610120565b604051808381526020018281526020019250505060405180910390f35b60606040518060400160405280600a81526020017f626c6f636b636861696e00000000000000000000000000000000000000000000815250905090565b600080607b8081915080905091509150909156fea265627a7a7231582096da011f29e98c8c96d7745ed4ae06f3dc11172ab91b47d70e9998e52c7e4dda64736f6c63430005100032",
  "source": "pragma solidity ^0.5.16; \r\n\r\ncontract helloword {\r\n    \r\n    function hello() public pure returns(string memory){\r\n        return \"blockchain\";\r\n    }\r\n    function get() public pure returns(uint,uint){\r\n        return (123,123);\r\n    }\r\n   \r\n    }",
  "sourcePath": "C:/Users/PC/project/contracts/helloword.sol",
  "compiler": {
    "name": "solc",
    "version": "0.5.16+commit.9c3226ce.Emscripten.clang"
  },
  "schemaVersion": "3.3.4",
  "updatedAt": "2021-10-15T14:36:20.083Z",
  "networkType": "ethereum",
  "devdoc": {
    "methods": {}
  },
  "userdoc": {
    "methods": {}
  }
}