{
  "contractName": "sender",
  "abi": [
    {
      "inputs": [],
      "payable": false,
      "stateMutability": "nonpayable",
      "type": "constructor"
    },
    {
      "constant": false,
      "inputs": [
        {
          "internalType": "address",
          "name": "newmanger",
          "type": "address"
        }
      ],
      "name": "update",
      "outputs": [],
      "payable": false,
      "stateMutability": "nonpayable",
      "type": "function"
    },
    {
      "constant": true,
      "inputs": [],
      "name": "getmanger",
      "outputs": [
        {
          "internalType": "address",
          "name": "",
          "type": "address"
        }
      ],
      "payable": false,
      "stateMutability": "view",
      "type": "function"
    }
  ],
  "bytecode": "0x608060405234801561001057600080fd5b50336000806101000a81548173ffffffffffffffffffffffffffffffffffffffff021916908373ffffffffffffffffffffffffffffffffffffffff160217905550610232806100606000396000f3fe608060405234801561001057600080fd5b50600436106100365760003560e01c80631b710dda1461003b5780631c1b877214610085575b600080fd5b6100436100c9565b604051808273ffffffffffffffffffffffffffffffffffffffff1673ffffffffffffffffffffffffffffffffffffffff16815260200191505060405180910390f35b6100c76004803603602081101561009b57600080fd5b81019080803573ffffffffffffffffffffffffffffffffffffffff1690602001909291905050506100f2565b005b60008060009054906101000a900473ffffffffffffffffffffffffffffffffffffffff16905090565b6000809054906101000a900473ffffffffffffffffffffffffffffffffffffffff1673ffffffffffffffffffffffffffffffffffffffff163373ffffffffffffffffffffffffffffffffffffffff1614610197576040517f08c379a00000000000000000000000000000000000000000000000000000000081526004018080602001828103825260238152602001806101db6023913960400191505060405180910390fd5b806000806101000a81548173ffffffffffffffffffffffffffffffffffffffff021916908373ffffffffffffffffffffffffffffffffffffffff1602179055505056fe6f6e6c792063757272656e74206f776e65722063616e20757064617465206f776e6572a265627a7a72315820d26077f6c4d19f383afd96a4c5b87024b42302c682493551538cb0ac376e036e64736f6c63430005100032",
  "source": "pragma solidity ^0.5.16;\r\ncontract sender {\r\n    address private manger;\r\n\r\n    constructor() public {\r\n        manger= msg.sender;\r\n    }\r\n\r\n    function update(address newmanger) public {\r\n        require(msg.sender == manger, \"only current owner can update owner\");\r\n        manger = newmanger;\r\n    }\r\n\r\n    function getmanger() public view returns (address) {\r\n        return manger;\r\n    }\r\n}\r\n",
  "sourcePath": "C:/Users/PC/project/contracts/Sender.sol",
  "compiler": {
    "name": "solc",
    "version": "0.5.16+commit.9c3226ce.Emscripten.clang"
  },
  "schemaVersion": "3.3.4",
  "updatedAt": "2021-06-06T16:54:39.517Z",
  "networkType": "ethereum",
  "devdoc": {
    "methods": {}
  },
  "userdoc": {
    "methods": {}
  }
}