{
  "contractName": "somme",
  "abi": [
    {
      "constant": true,
      "inputs": [
        {
          "internalType": "int256",
          "name": "a",
          "type": "int256"
        },
        {
          "internalType": "int256",
          "name": "b",
          "type": "int256"
        }
      ],
      "name": "s1",
      "outputs": [
        {
          "internalType": "int256",
          "name": "",
          "type": "int256"
        }
      ],
      "payable": false,
      "stateMutability": "view",
      "type": "function"
    },
    {
      "constant": true,
      "inputs": [
        {
          "internalType": "uint256",
          "name": "a",
          "type": "uint256"
        },
        {
          "internalType": "uint256",
          "name": "b",
          "type": "uint256"
        },
        {
          "internalType": "uint256",
          "name": "c",
          "type": "uint256"
        },
        {
          "internalType": "uint256",
          "name": "d",
          "type": "uint256"
        },
        {
          "internalType": "uint256",
          "name": "e",
          "type": "uint256"
        }
      ],
      "name": "s2",
      "outputs": [
        {
          "internalType": "uint256",
          "name": "",
          "type": "uint256"
        }
      ],
      "payable": false,
      "stateMutability": "view",
      "type": "function"
    }
  ],
  "bytecode": "0x608060405234801561001057600080fd5b50610149806100206000396000f3fe608060405234801561001057600080fd5b50600436106100365760003560e01c8063ad66650d1461003b578063bbe3fe8514610087575b600080fd5b6100716004803603604081101561005157600080fd5b8101908080359060200190929190803590602001909291905050506100f1565b6040518082815260200191505060405180910390f35b6100db600480360360a081101561009d57600080fd5b8101908080359060200190929190803590602001909291908035906020019092919080359060200190929190803590602001909291905050506100fe565b6040518082815260200191505060405180910390f35b6000818301905092915050565b600081838587890101010190509594505050505056fea265627a7a72315820116804d76e7f2ae18d7a18dae1fe5874df82d6476c8b2de4a045c6253c46766e64736f6c63430005100032",
  "source": "pragma solidity ^0.5.16 ; //gasless send\r\n\r\ncontract  somme {\r\n\r\n   \r\n    function s1(int a, int b) public  view returns(int ){\r\n        return a+b ; \r\n        \r\n    }\r\n    function s2(uint a, uint b,uint c, uint d, uint e) public  view returns(uint ){\r\n        return a+b+c+d+e ; \r\n        \r\n    }\r\n    \r\n   \r\n}",
  "sourcePath": "C:/Users/PC/project/contracts/somme.sol",
  "compiler": {
    "name": "solc",
    "version": "0.5.16+commit.9c3226ce.Emscripten.clang"
  },
  "schemaVersion": "3.3.4",
  "updatedAt": "2021-10-23T17:26:12.593Z",
  "networkType": "ethereum",
  "devdoc": {
    "methods": {}
  },
  "userdoc": {
    "methods": {}
  }
}